:100000000200AA80338C2D8D2E8013758CD8758AB2
:10001000F0D28C308D02800280F9C28DC28CAC2D62
:10002000E52EFD152E7002152DED24FFEC648034B5
:100030007F4002800280D42280CB80587589017570
:100040002400752501752602752704752808752971
:1000500010752A20752B40752C80852490E5262567
:100060002CF5907C007D03120003E525252BF590EF
:100070007C007D01120003E5272529F5907C007D99
:1000800002120003E528252AF5907C007D0212006B
:100090000380CA2280A6E4F5D075812F78207A0FDC
:0D00A000F608DAFC12003A02000002009699
:00000001FF
