:1000000002008AE5836003E49322A882E622E58366
:100010006004E4938003A882E6F822E5836004E4A8
:10002000938003A882E6F922E5836004E4938003C9
:10003000A882E6FA22E5836004E4938003A882E6BE
:10004000FB22E5836004E4938003A882E6FC22E5BA
:10005000836004E4938003A882E6FD22E5836004C4
:10006000E4938003A882E6FE22E5836004E49380A3
:1000700003A882E6FF22E4F5D075813278207A1257
:0D008000F608DAFC12011102000002007601
:10010000467269656E64730048656C6C6F210020EF
:1001100000020637752A01752B08752C01752D0014
:10012000752E01752F0F7530007531C075803875CB
:10013000A00175A00075808A75A00175A00075806A
:100140000C75A00175A000E4F522F523E52324FA3F
:10015000E52234FF500280028002802DE523252B0A
:10016000F582E522352AF583120003F58075A00398
:1001700075A0020523E52370020522E52324FAE594
:100180002234FF5002800280D3E4F522F523E523D8
:1001900024F8E52234FF5002800280028072A822F7
:1001A000A923E9C333F9E833F87409C399F5257431
:1001B0000098F524E52524F8E52434FF5002800258
:1001C0008002802DE525252DF582E524352CF5834B
:1001D000120003F58075A00375A0020525E52570C2
:1001E000020524E52524F8E52434FF50028002802E
:1001F000D37580C075A00175A0000523E5237002AA
:100200000522E52324F8E52234FF50028002808E87
:10021000E4F524F525E52524FEE52434FF5002808D
:10022000028002801F75801475A00375A002052549
:10023000E52570020524E52524FEE52434FF50025F
:10024000800280E1E53104F58075A00175A000E42D
:10025000F522F523E52324F9E52234FF500280023C
:100260008002802DE523252DF582E522352CF583AE
:10027000120003F58075A00375A0020523E5237025
:10028000020522E52324F9E52234FF500280028092
:10029000D3E53104F58075A00175A000E4F524F5DF
:1002A00025E52524FEE52434FF50028002800280EB
:1002B0001F75801475A00375A0020525E525700241
:1002C0000524E52524FEE52434FF5002800280E168
:1002D000E4F522F523E52324F9E52234FF500280DA
:1002E000028002802DE523252DF582E522352CF5AF
:1002F00083120003F58075A00375A0020523E52392
:1003000070020522E52324F9E52234FF5002800221
:1003100080D3E5312403F58075A00175A000E4F5D4
:1003200024F525E52524FEE52434FF5002800280D3
:1003300002801F75801475A00375A0020525E525B0
:1003400070020524E52524FEE52434FF50028002D6
:1003500080E1E4F522F523E52324F9E52234FF507A
:100360000280028002802DE523252DF582E52235CD
:100370002CF583120003F58075A00375A0020523F8
:10038000E52370020522E52324F9E52234FF50021B
:10039000800280D3E5312405F58075A00175A000A9
:1003A000E4F524F525E52524FEE52434FF500280FC
:1003B000028002801F75801475A00375A0020525B8
:1003C000E52570020524E52524FEE52434FF5002CE
:1003D000800280E1E4F522F523E52324F9E52234C7
:1003E000FF500280028002802DE523252DF582E555
:1003F00022352CF583120003F58075A00375A00249
:100400000523E52370020522E52324F9E52234FFC4
:100410005002800280D3E5312407F58075A0017574
:10042000A000E4F524F525E52524FEE52434FF505D
:100430000280028002801F75801475A00375A002DF
:100440000525E52570020524E52524FEE52434FF75
:100450005002800280E1E4F522F523E52324F9E54A
:100460002234FF500280028002802DE523252DF5E5
:1004700082E522352CF583120003F58075A0037503
:10048000A0020523E52370020522E52324F9E522D5
:1004900034FF5002800280D3E5312409F58075A035
:1004A0000175A000E4F524F525E52524FEE52434B6
:1004B000FF500280028002801F75801475A00375B2
:1004C000A0020525E52570020524E52524FEE52486
:1004D00034FF5002800280E1E4F522F523E5232475
:1004E000FBE52234FF500280028002802DE52325A7
:1004F0002DF582E522352CF583120003F58075A0D9
:100500000375A0020523E52370020522E52324FBE1
:10051000E52234FF5002800280D3E531240BF580C0
:1005200075A00175A000E4F524F525E52524FEE578
:100530002434FF500280028002801F75801475A051
:100540000375A0020525E52570020524E52524FE96
:10055000E52434FF5002800280E1E4F522F523E532
:100560002324FDE52234FF500280028002802DE525
:1005700023252DF582E522352CF583120003F58025
:1005800075A00375A0020523E52370020522E5236B
:1005900024FDE52234FF5002800280D3E531240D92
:1005A000F58075A00175A000E4F524F525E5252466
:1005B000FEE52434FF500280028002801F75801403
:1005C00075A00375A0020525E52570020524E52523
:1005D00024FEE52434FF5002800280E1E4F522F598
:1005E00023E52324FFE52234FF50028002800280AD
:1005F0002DE523252DF582E522352CF58312000308
:10060000F58075A00375A0020523E523700205227D
:10061000E52324FFE52234FF5002800280D3E53138
:10062000240FF58075A00175A00075801475A003D6
:0A06300075A00202018922020114E4
:00000001FF
