:10000000020058898288838B00EC4D6036E4E0F66C
:1000100008A31DBDFFF31C80F0B800118B00EC4D50
:100020006021E7F609081DBDFFF41C80F189828874
:10003000838B00EC4D600CE493F608A31DBDFFF329
:100040001C80F022E4F5D075813478207A14F6080B
:0B005000DAFC12011002000002004464
:100100003738392B3435362D3132332A43303D2FB1
:10011000020261780179007A007B207D107C001258
:100120000019E4F530F531E4F532F53375803875B2
:10013000A00175A00075808075A00175A000C29017
:100140002094028002800A7923878075A00375A01D
:10015000022095028002800A7922878075A00375AB
:10016000A0022096028002800A7921878075A00370
:1001700075A0022097028002800A7920878075A0EE
:100180000375A002D290C2912094028002800A7965
:1001900027878075A00375A0022095028002800A3F
:1001A0007926878075A00375A002209602800280C0
:1001B0000A7925878075A00375A002209702800226
:1001C000800A7924878075A00375A002D291C2921B
:1001D0002094028002800A792B878075A00375A085
:1001E000022095028002800A792A878075A0037513
:1001F000A0022096028002800A7929878075A003D8
:1002000075A0022097028002800A7928878075A055
:100210000375A002D292C2932094028002800A79D0
:100220002F878075A00375A0022095028002800AA6
:10023000792E878075A00375A00220960280028027
:100240000A792D878075A00375A00220970280028D
:10025000800975800175A00175A000D29302013E4E
:040260002202011362
:00000001FF
