:100000000200CC80108D998D3080003099028002E2
:1000100080F9C2992280EE805C780179007A007BB9
:10002000227D0E7C0012008D758920758DF4D28E94
:10003000758740E4F520F521E52124F6E52034FF1D
:10004000500280028002802A74222521F987E075FF
:10005000984074222521F987051200030521E52126
:1000600070020520E52124F6E52034FF50028002CD
:1000700080D680FE2280A2898288838B00EC4D602E
:1000800036E4E0F608A31DBDFFF31C80F0B80011B4
:100090008B00EC4D6021E7F609081DBDFFF41C80C4
:1000A000F1898288838B00EC4D600CE493F608A301
:1000B0001DBDFFF31C80F022E4F5D075813178205E
:0F00C0007A11F608DAFC1200170200000200B8ED
:0E0100006E796E624975756542000000000060
:00000001FF
